{
  "contractName": "Funder",
  "abi": [
    {
      "inputs": [],
      "name": "numOfFunders",
      "outputs": [
        {
          "internalType": "uint256",
          "name": "",
          "type": "uint256"
        }
      ],
      "stateMutability": "view",
      "type": "function",
      "constant": true
    },
    {
      "inputs": [],
      "name": "transfer",
      "outputs": [],
      "stateMutability": "payable",
      "type": "function",
      "payable": true
    },
    {
      "inputs": [
        {
          "internalType": "uint256",
          "name": "withdrawAmount",
          "type": "uint256"
        }
      ],
      "name": "withdraw",
      "outputs": [],
      "stateMutability": "nonpayable",
      "type": "function"
    }
  ],
  "bytecode": "0x608060405234801561001057600080fd5b5061018d806100206000396000f3fe6080604052600436106100345760003560e01c80632e1a7d4d146100395780638a4068dd1461005b578063af7f2c9b1461007f575b600080fd5b34801561004557600080fd5b5061005961005436600461013e565b6100a7565b005b61005960008054815260016020526040902080546001600160a01b03191633179055565b34801561008b57600080fd5b5061009560005481565b60405190815260200160405180910390f35b671bc16d674ec8000081111561010d5760405162461bcd60e51b815260206004820152602160248201527f43616e6e6f74207769746864726177206d6f7265207468616e203220657468656044820152603960f91b606482015260840160405180910390fd5b604051339082156108fc029083906000818181858888f1935050505015801561013a573d6000803e3d6000fd5b5050565b60006020828403121561015057600080fd5b503591905056fea2646970667358221220a67c764d9f714eb0c8ab88ff466fe5f0affeb469eb59e192907a67835c678e6364736f6c63430008090033",
  "immutableReferences": {},
  "source": "// SPDX-License-Identifier: MIT\r\npragma solidity >=0.4.22 <0.9.0;\r\n\r\ncontract Funder {\r\n    uint256 public numOfFunders;\r\n\r\n    mapping(uint256 => address) private funders;\r\n\r\n    // receive() external payable {}\r\n\r\n    function transfer() external payable {\r\n        funders[numOfFunders] = msg.sender;\r\n    }\r\n\r\n    function withdraw(uint256 withdrawAmount) external {\r\n        require(\r\n            withdrawAmount <= 2000000000000000000,\r\n            \"Cannot withdraw more than 2 ether\"\r\n        );\r\n        payable(msg.sender).transfer(withdrawAmount);\r\n    }\r\n}",
  "sourcePath": "D:\\CDC\\Companies\\SDE\\Sperax\\Dapp\\contracts\\Funder.sol",
  "compiler": {
    "name": "solc",
    "version": "0.8.9+commit.e5eed63a.Emscripten.clang"
  },
  "schemaVersion": "3.4.15",
  "updatedAt": "2023-09-02T10:16:33.859Z",
  "networkType": "ethereum",
  "devdoc": {
    "kind": "dev",
    "methods": {},
    "version": 1
  },
  "userdoc": {
    "kind": "user",
    "methods": {},
    "version": 1
  }
}